:0400000069EF00F0B4
:10001800D8CF01F0E8CF02F0E0CF03F0FACF04F038
:10002800FBCF05F0E9CF06F0EACF07F0E1CF08F003
:10003800E2CF09F0D9CF0AF0DACF0BF0F3CF0CF00A
:10004800F4CF0DF0F6CF0EF0F7CF0FF0F8CF10F099
:10005800F5CF11F0A4AA15D07ACF21F01E50040ACA
:100068001D10D8A404D0000E1E6E000E1D6E270EA3
:100078001D24D96E0A0E1E20DA6E21C0DFFF1D4A2C
:100088001E2AA49A11C0F5FF10C0F8FF0FC0F7FF91
:100098000EC0F6FF0DC0F4FF0CC0F3FF0BC0DAFF73
:1000A8000AC0D9FF09C0E2FF08C0E1FF07C0EAFFA4
:1000B80006C0E9FF05C0FBFF04C0FAFF03C0E0FF6C
:1000C80002C0E8FF01C0D8FF10005FEF01F0176E13
:1000D800000E196E000E186E8290000E196E01D077
:1000E800192A030E1964FCD78292000E196E01D0EA
:1000F800192A030E1964FCD78294000E196E01D0D8
:10010800192A030E1964FCD78296000E196E01D0C5
:10011800192A030E1964FCD78298000E196E01D0B3
:10012800192A030E1964FCD7829A000E196E01D0A1
:10013800192A030E1964FCD7829C000E196E01D08F
:10014800192A030E1964FCD7829E000E196E01D07D
:10015800192A030E1964FCD7000E186E7F0E186456
:1001680001D02ED01750136E146A070ED89013368C
:100178001436E82EFBD71850156E166A135015263C
:1001880014501622270E1524D96E0A0E1620DA6E80
:10019800DF507EEC01F0182A7F0E1864E3D710D0E8
:1001A80082801200828212008284120082861200EB
:1001B80082881200828A1200828C1200828E1200BB
:1001C8001750000AD8B4ECD7010AD8B4EBD7030A01
:1001D800D8B4EAD7010AD8B4E9D7070AD8B4E8D717
:1001E800010AD8B4E7D7030AD8B4E6D7010AD8A4D5
:1001F8001200E4D7000E1C6E47EC01F027EC01F06A
:1002080073EC01F0000E1B6E000E1A6E000E1C6ED1
:10021800070E1C6401D0FAD71C506BEC00F0000EDE
:100228001B6E000E1A6E1B50800A7D0FE80ED8B4A4
:100238001A5CD8B003D01A4A1B2AF5D71C2A070E15
:100248001C64EAD7E3D7BA9EBA9CBA8ABA98BA9617
:10025800BA84BA82BA90A68EA69CA69AA688A696B2
:10026800A694A692A690B99EB98CB99AB998B9865F
:10027800B992B990A38AD08E730EAF6E000E7C6EC1
:10028800890E7B6E1200700ED36E000E0F015D6F2B
:10029800C290000E806E000E926E400E816E800E2F
:1002A800936E000E826E000E946EF28EF28CF80E33
:1002B800F26E9B8C12000AEE27F014EE1AF0EE6A2A
:1002C800E550E150FCE1E250FAE1216A206A1F6A38
:1002D8001E6A1D6A000EF86E0001FEEF00F0D59050
:1002E800D582D594D596D59AD58CF28AF28CF28E91
:1002F800D58E1200126EA4A8FED712C079FF120084
:020000040020DA
:08000000FFFFFFFFFFFFFFFF00
:020000040030CA
:0E00000014997E7CFF0991FF000000000000B3
:00000001FF
