:040000006AEF00F0B3
:10000800FACF01F0FBCF02F0E9CF03F097EF01F050
:10001800D8CF0FF0E8CF10F0E0CF11F0FACF12F000
:10002800FBCF13F0E9CF14F0EACF15F0E1CF16F0CB
:10003800E2CF17F0D9CF18F0DACF19F0F3CF1AF0D2
:10004800F4CF1BF0F6CF1CF0F7CF1DF0F8CF1EF061
:10005800F5CF1FF0A4AA16D07ACF2DF02A50800A27
:10006800D8A402D0000E2A6E2A282A6E2A50010D22
:100078000001600EF324D96E0001000EF420DA6E40
:100088002DC0DFFFA49A1FC0F5FF1EC0F8FF1DC0DA
:10009800F7FF1CC0F6FF1BC0F4FF1AC0F3FF19C01E
:1000A800DAFF18C0D9FF17C0E2FF16C0E1FF15C07C
:1000B800EAFF14C0E9FF13C0FBFF12C0FAFF11C02A
:1000C800E0FF10C0E8FF0FC0D8FF10004AEF02F0B1
:1000D800216E000E226E000E236E8290000E226E9C
:1000E80001D0222A030E2264FCD78292000E226ECF
:1000F80001D0222A030E2264FCD78294000E226EBD
:1001080001D0222A030E2264FCD78296000E226EAA
:1001180001D0222A030E2264FCD78298000E226E98
:1001280001D0222A030E2264FCD7829A000E226E86
:1001380001D0222A030E2264FCD7829C000E226E74
:1001480001D0222A030E2264FCD7829E000E226E62
:10015800030E226401D0CDD0222A030E2264FCD7DC
:10016800C8D08280000E236E0F0E236401D01200C7
:100178002350010D0001600EF324D96E0001000E1A
:10018800F420DA6EDF506BEC02F0232A0F0E2364A2
:10019800EFD712008282100E236E1F0E236401D047
:1001A80012002350010D0001600EF324D96E0001E6
:1001B800000EF420DA6EDF506BEC02F0232A1F0EDB
:1001C8002364EFD712008284200E236E2F0E23643F
:1001D80001D012002350010D0001600EF324D96EE6
:1001E8000001000EF420DA6EDF506BEC02F0232AD7
:1001F8002F0E2364EFD712008286300E236E3F0E37
:10020800236401D012002350010D0001600EF32475
:10021800D96E0001000EF420DA6EDF506BEC02F0AC
:10022800232A3F0E2364EFD712008288400E236EE4
:100238004F0E236401D012002350010D0001600EFF
:10024800F324D96E0001000EF420DA6EDF506BEC57
:1002580002F0232A4F0E2364EFD71200828A500E31
:10026800236E5F0E236401D012002350010D00019C
:10027800600EF324D96E0001000EF420DA6EDF5010
:100288006BEC02F0232A5F0E2364EFD71200828CF6
:10029800600E236E6F0E236401D012002350010DEF
:1002A8000001600EF324D96E0001000EF420DA6E0E
:1002B800DF506BEC02F0232A6F0E2364EFD7120095
:1002C800828E700E236E7F0E236401D0120023509D
:1002D800010D0001600EF324D96E0001000EF42018
:1002E800DA6EDF506BEC02F0232A7F0E2364EFD71F
:1002F80012002150000AD8B434D7010AD8B44AD71A
:10030800030AD8B460D7010AD8B476D7070AD8B494
:100318008CD7010AD8B4A2D7030AD8B4B8D7010A2F
:10032800D8A41200CDD7EACF04F0E1CF05F0E2CF90
:1003380006F0D9CF07F0DACF08F0F3CF09F0F4CF01
:100348000AF0F6CF0BF0F7CF0CF0F8CF0DF0F5CFA1
:100358000EF0F2A409D0292A2950080AD8A403D0FB
:10036800000E296E82848294F2940EC0F5FF0DC0AF
:10037800F8FF0CC0F7FF0BC0F6FF0AC0F4FF09C076
:10038800F3FF08C0DAFF07C0D9FF06C0E2FF05C0C7
:10039800E1FF04C0EAFF03C0E9FF02C0FBFF01C0A0
:1003A800FAFF1100000E246E000E256E000E266E58
:1003B800000E276E000E286E32EC02F012EC02F0EE
:1003C80060EC02F029506CEC00F0000E256E000E77
:1003D800266E000E276E000E286E2850800A800FA9
:1003E80008E1000E275C05E1000E265C02E1640EC0
:1003F800255CD8B0E7D7010E2526000E2622272235
:1004080028222850800A800F08E1000E275C05E1A9
:10041800000E265C02E1640E255CEBD7BA9EBA9CFE
:10042800BA8ABA98BA96BA84BA82BA90A68EA69CA4
:10043800A69AA688A696A694A692A690B99EB98CC6
:10044800B99AB998B986B992B990A38AD08E730E21
:10045800AF6E000E7C6E890E7B6E1200700ED36E2E
:10046800000E0F015D6FC290000E806E000E926E3E
:10047800400E816E800E936E000E826E000E946E9A
:10048800F28EF28CF80EF26E9B8C120001EE00F0E8
:10049800500EEE6AE806FDE100EE60F0820EEE6AAC
:1004A800E806FDE12D6A2C6A2B6A2A6A296A000E81
:1004B800F86E0001D6EF01F0D590D582D594D59687
:1004C800D59AD58CF28AF28CF28ED58E1200206ED7
:0A04D800A4A8FED720C079FF12008F
:020000040020DA
:08000000FFFFFFFFFFFFFFFF00
:020000040030CA
:0E00000014997E7CFF0991FF000000000000B3
:00000001FF
