:040000006BEF00F0B2
:10001800D8CF01F0E8CF02F0E0CF03F0FACF04F038
:10002800FBCF05F0E9CF06F0EACF07F0E1CF08F003
:10003800E2CF09F0D9CF0AF0DACF0BF0F3CF0CF00A
:10004800F4CF0DF0F6CF0EF0F7CF0FF0F8CF10F099
:10005800F5CF11F0A4AA17D07ACF28F02450800A3F
:100068002510D8A404D0000E256E000E246E0001C1
:10007800600E2424D96E0001000E2520DA6E28C0F7
:10008800DFFF244A252AA49A11C0F5FF10C0F8FF03
:100098000FC0F7FF0EC0F6FF0DC0F4FF0CC0F3FF52
:1000A8000BC0DAFF0AC0D9FF09C0E2FF08C0E1FFB0
:1000B80007C0EAFF06C0E9FF05C0FBFF04C0FAFF5E
:1000C80003C0E0FF02C0E8FF01C0D8FF100098EFAE
:1000D80002F0176E000E196E000E1A6E000E1B6EDF
:1000E800000E1C6E000E186E8290000E196E000E27
:1000F8001A6E000E1B6E000E1C6E1C50800A800FBC
:1001080008E1000E1B5C05E1000E1A5C02E1040E1A
:10011800195CD8B013D0010E1926000E1A221B2222
:100128001C221C50800A800F08E1000E1B5C05E1B0
:10013800000E1A5C02E1040E195CEBD78292000EE5
:10014800196E000E1A6E000E1B6E000E1C6E1C50EF
:10015800800A800F08E1000E1B5C05E1000E1A5CA6
:1001680002E1040E195CD8B013D0010E1926000E56
:100178001A221B221C221C50800A800F08E1000E44
:100188001B5C05E1000E1A5C02E1040E195CEBD75A
:100198008294000E196E000E1A6E000E1B6E000E71
:1001A8001C6E1C50800A800F08E1000E1B5C05E1E4
:1001B800000E1A5C02E1040E195CD8B013D0010ECF
:1001C8001926000E1A221B221C221C50800A800F9E
:1001D80008E1000E1B5C05E1000E1A5C02E1040E4A
:1001E800195CEBD78296000E196E000E1A6E000E7F
:1001F8001B6E000E1C6E1C50800A800F08E1000E5A
:100208001B5C05E1000E1A5C02E1040E195CD8B013
:1002180013D0010E1926000E1A221B221C221C5074
:10022800800A800F08E1000E1B5C05E1000E1A5CD5
:1002380002E1040E195CEBD78298000E196E000ECD
:100248001A6E000E1B6E000E1C6E1C50800A800F6A
:1002580008E1000E1B5C05E1000E1A5C02E1040EC9
:10026800195CD8B013D0010E1926000E1A221B22D1
:100278001C221C50800A800F08E1000E1B5C05E15F
:10028800000E1A5C02E1040E195CEBD7829A000E8C
:10029800196E000E1A6E000E1B6E000E1C6E1C509E
:1002A800800A800F08E1000E1B5C05E1000E1A5C55
:1002B80002E1040E195CD8B013D0010E1926000E05
:1002C8001A221B221C221C50800A800F08E1000EF3
:1002D8001B5C05E1000E1A5C02E1040E195CEBD709
:1002E800829C000E196E000E1A6E000E1B6E000E18
:1002F8001C6E1C50800A800F08E1000E1B5C05E193
:10030800000E1A5C02E1040E195CD8B013D0010E7D
:100318001926000E1A221B221C221C50800A800F4C
:1003280008E1000E1B5C05E1000E1A5C02E1040EF8
:10033800195CEBD7829E000E196E000E1A6E000E25
:100348001B6E000E1C6E1C50800A800F08E1000E08
:100358001B5C05E1000E1A5C02E1040E195CD8B0C2
:1003680013D0010E1926000E1A221B221C221C5023
:10037800800A800F08E1000E1B5C05E1000E1A5C84
:1003880002E1040E195CEBD7000E186E0F0E18640C
:1003980001D033D01750136E146A133A143AF00E82
:1003A800141613500F0B1412F00E13161850156E66
:1003B800166A13501526145016220001600E1524D3
:1003C800D96E0001000E1620DA6EDF50A8EC02F09C
:1003D800182A0F0E1864DED710D0828027D08282A8
:1003E80025D0828423D0828621D082881FD0828A19
:1003F8001DD0828C1BD0828E19D01750000AD8B419
:10040800ECD7010AD8B4EBD7030AD8B4EAD7010A63
:10041800D8B4E9D7070AD8B4E8D7010AD8B4E7D7D7
:10042800030AD8B4E6D7010AD8B4E5D7000E196E86
:10043800000E1A6E000E1B6E000E1C6E1C50800AF9
:10044800800F08E1000E1B5C05E1000E1A5C02E15A
:10045800FA0E195CD8B01200010E1926000E1A22E5
:100468001B221C221C50800A800F08E1000E1B5C16
:1004780005E1000E1A5C02E1FA0E195CEBD7BA9E90
:10048800BA9CBA8ABA98BA96BA84BA82BA90A68E30
:10049800A69CA69AA688A696A694A692A690B99E69
:1004A800B98CB99AB998B986B992B990A38AD08EFD
:1004B800730EAF6E000E7C6E890E7B6E1200000EFE
:1004C800236E000E1D6E000E1E6E000E1F6E000EB7
:1004D800206E80EC02F043EC02F0000E226E000E5B
:1004E800216E2650080AD8A402D0000E266E265087
:1004F8006DEC00F0262AF5D7700ED36E000E0F01B2
:100508005D6FC290000E806E000E926E400E816E7E
:10051800800E936E000E826E000E946EF28EF28C38
:10052800E00EF26E9B8C120000EE60F08C0EEE6A0C
:10053800E806FDE1286A276A266A256A246A000E09
:10054800F86E000163EF02F0126EA4A8FED712C085
:0405580079FF120015
:020000040020DA
:08000000FFFFFFFFFFFFFFFF00
:020000040030CA
:0E00000014987E7CFF0991FF000000000000B4
:00000001FF
