:04000000A8EF00F075
:10001800D8CF02F0E8CF03F0E0CF04F0FACF05F034
:10002800FBCF06F0E9CF07F0EACF08F0E1CF09F0FF
:10003800E2CF0AF0D9CF0BF0DACF0CF0F3CF0DF006
:10004800F4CF0EF0F6CF0FF0F7CF10F0F8CF11F095
:10005800F5CF12F0A4AA0CD07ACF2EF02B50800A3C
:10006800D8A402D0000E2B6E2E50A7EC01F02B2A3C
:10007800A49A12C0F5FF11C0F8FF10C0F7FF0FC017
:10008800F6FF0EC0F4FF0DC0F3FF0CC0DAFF0BC083
:10009800D9FF0AC0E2FF09C0E1FF08C0EAFF07C0B4
:1000A800E9FF06C0FBFF05C0FAFF04C0E0FF03C07C
:1000B800E8FF02C0D8FF1000D8CF13F0E8CF14F043
:1000C800E0CF15F0FACF16F0FBCF17F0E9CF18F014
:1000D800EACF19F0E1CF1AF0E2CF1BF0D9CF1CF02C
:1000E800DACF1DF0F3CF1EF0F4CF1FF0F6CF20F0DB
:1000F800F7CF21F0F8CF22F0F5CF23F0F2BA00D0F5
:10010800F29423C0F5FF22C0F8FF21C0F7FF20C0FA
:10011800F6FF1FC0F4FF1EC0F3FF1DC0DAFF1CC0AE
:10012800D9FF1BC0E2FF1AC0E1FF19C0EAFF18C0DF
:10013800E9FF17C0FBFF16C0FAFF15C0E0FF14C0A7
:10014800E8FF13C0D8FF100098EF01F0246E000EEE
:10015800256E8290000E256E01D0252A030E256497
:10016800FCD78292000E256E01D0252A030E256445
:10017800FCD78294000E256E01D0252A030E256433
:10018800FCD78296000E256E01D0252A030E256421
:10019800FCD78298000E256E01D0252A030E25640F
:1001A800FCD7829A000E256E01D0252A030E2564FD
:1001B800FCD7829C000E256E01D0252A030E2564EB
:1001C800FCD7829E000E256E030E256401D015D043
:1001D800252A030E2564FCD710D082801200828263
:1001E8001200828412008286120082881200828A9B
:1001F8001200828C1200828E12002450000AD8B499
:10020800ECD7010AD8B4EBD7030AD8B4EAD7010A65
:10021800D8B4E9D7070AD8B4E8D7010AD8B4E7D7D9
:10022800030AD8B4E6D7010AD8A41200E4D7000E0E
:100238002A6E000E266E000E276E000E286E000E27
:10024800296E80EC01F060EC01F0000E2A6E070EBA
:100258002A6401D0FAD72A50AAEC00F0000E266EC4
:10026800000E276E000E286E000E296E2950800A97
:10027800800F08E1010E285C05E1860E275C02E18B
:10028800A00E265CD8B013D0010E2626000E272219
:10029800282229222950800A800F08E1010E285CB3
:1002A80005E1860E275C02E1A00E265CEBD72A2A20
:1002B800070E2A64D0D7C9D7BA9EBA9CBA8ABA9808
:1002C800BA96BA84BA82BA90A68EA69CA69AA6882E
:1002D800A696A694A692A690B99EB98CB99AB998F2
:1002E800B986B992B990A38AD08E730EAF6E000EFC
:1002F8007C6E890E7B6E1200700ED36E000E0F019D
:100308005D6FC290000E806E000E926E400E816E80
:10031800800E936E000E826E000E946EF28EF28C3A
:10032800C00EF26E9B8C120000EE60F0500EEE6A6A
:10033800E806FDE12E6A2D6A2C6A2B6A000EF86E1B
:1003480000011BEF01F0016EA4A8FED701C079FFE0
:02035800120091
:020000040020DA
:08000000FFFFFFFFFFFFFFFF00
:020000040030CA
:0E00000014997E7CFF0991FF000000000000B3
:00000001FF
