:040000006BEF00F0B2
:10001800D8CF01F0E8CF02F0E0CF03F0FACF04F038
:10002800FBCF05F0E9CF06F0EACF07F0E1CF08F003
:10003800E2CF09F0D9CF0AF0DACF0BF0F3CF0CF00A
:10004800F4CF0DF0F6CF0EF0F7CF0FF0F8CF10F099
:10005800F5CF11F0A4AA17D07ACF28F02450800A3F
:100068002510D8A404D0000E256E000E246E0001C1
:10007800600E2424D96E0001000E2520DA6E28C0F7
:10008800DFFF244A252AA49A11C0F5FF10C0F8FF03
:100098000FC0F7FF0EC0F6FF0DC0F4FF0CC0F3FF52
:1000A8000BC0DAFF0AC0D9FF09C0E2FF08C0E1FFB0
:1000B80007C0EAFF06C0E9FF05C0FBFF04C0FAFF5E
:1000C80003C0E0FF02C0E8FF01C0D8FF100050EFF6
:1000D80002F01B6E000E176E000E186E000E196EE1
:1000E800000E1A6E000E1C6E40D1829E000E1C6E11
:1000F8001FD01B50136E146A133A143AF00E1416DC
:1001080013500F0B1412F00E13161C50156E166AAE
:1001180013501526145016220001600E1524D96EAE
:100128000001000E1620DA6EDF5060EC02F01C2A87
:100138000F0E1C64DED7828031D18290000E1C6EB7
:100148001FD01B50136E146A133A143AF00E14168B
:1001580013500F0B1412F00E13161C50156E166A5E
:1001680013501526145016220001600E1524D96E5E
:100178000001000E1620DA6EDF5060EC02F01C2A37
:100188000F0E1C64DED7828209D18292000E1C6E8B
:100198001FD01B50136E146A133A143AF00E14163B
:1001A80013500F0B1412F00E13161C50156E166A0E
:1001B80013501526145016220001600E1524D96E0E
:1001C8000001000E1620DA6EDF5060EC02F01C2AE7
:1001D8000F0E1C64DED78284E1D08294000E1C6E60
:1001E8001FD01B50136E146A133A143AF00E1416EB
:1001F80013500F0B1412F00E13161C50156E166ABE
:1002080013501526145016220001600E1524D96EBD
:100218000001000E1620DA6EDF5060EC02F01C2A96
:100228000F0E1C64DED78286B9D08296000E1C6E33
:100238001FD01B50136E146A133A143AF00E14169A
:1002480013500F0B1412F00E13161C50156E166A6D
:1002580013501526145016220001600E1524D96E6D
:100268000001000E1620DA6EDF5060EC02F01C2A46
:100278000F0E1C64DED7828891D08298000E1C6E07
:100288001FD01B50136E146A133A143AF00E14164A
:1002980013500F0B1412F00E13161C50156E166A1D
:1002A80013501526145016220001600E1524D96E1D
:1002B8000001000E1620DA6EDF5060EC02F01C2AF6
:1002C8000F0E1C64DED7828A69D0829A000E1C6EDB
:1002D8001FD01B50136E146A133A143AF00E1416FA
:1002E80013500F0B1412F00E13161C50156E166ACD
:1002F80013501526145016220001600E1524D96ECD
:100308000001000E1620DA6EDF5060EC02F01C2AA5
:100318000F0E1C64DED7828C41D0829C000E1C6EAE
:100328001FD01B50136E146A133A143AF00E1416A9
:1003380013500F0B1412F00E13161C50156E166A7C
:1003480013501526145016220001600E1524D96E7C
:100358000001000E1620DA6EDF5060EC02F01C2A55
:100368000F0E1C64DED7828E19D01B50000AD8B439
:10037800BCD6010AD8B4E1D6030AD8B406D7010A14
:10038800D8B42BD7070AD8B450D7010AD8B475D730
:10039800030AD8B49AD7010AD8B4BFD7000E176E8B
:1003A800000E186E000E196E000E1A6E1A50800A92
:1003B800800F08E1000E195C05E1030E185C02E1EC
:1003C800E80E175CD8B01200010E1726000E18228E
:1003D80019221A221A50800A800F08E1000E195CAF
:1003E80005E1030E185C02E1E80E175CEBD7BA9E34
:1003F800BA9CBA8ABA98BA96BA84BA82BA90A68EC1
:10040800A69CA69AA688A696A694A692A690B99EF9
:10041800B98CB99AB998B986B992B990A38AD08E8D
:10042800730EAF6E000E7C6E890E7B6E1200000E8E
:10043800236E000E1D6E000E1E6E000E1F6E000E47
:10044800206E38EC02F0FBEC01F0000E226E000E7C
:10045800216E2650080AD8A402D0000E266E265017
:100468006DEC00F0262AF5D7700ED36E000E0F0142
:100478005D6FC290000E926E000E806E800E936EBD
:10048800400E816E000E946E000E826EF28EF28C1B
:10049800E00EF26E9B8C120000EE60F08C0EEE6A9D
:1004A800E806FDE1286A276A266A256A246A000E9A
:1004B800F86E00011BEF02F0126EA4A8FED712C05E
:0404C80079FF1200A6
:020000040020DA
:08000000FFFFFFFFFFFFFFFF00
:020000040030CA
:0E00000014987E7CFF0991FF000000000000B4
:00000001FF
