:04000000B3EF00F06A
:10001800D8CF01F0E8CF02F0E0CF03F0FACF04F038
:10002800FBCF05F0E9CF06F0EACF07F0E1CF08F003
:10003800E2CF09F0D9CF0AF0DACF0BF0F3CF0CF00A
:10004800F4CF0DF0F6CF0EF0F7CF0FF0F8CF10F099
:10005800F5CF11F0A4AA17D07ACF3BF03750800A19
:100068003810D8A404D0000E386E000E376E000188
:10007800600E3724D96E0001000E3820DA6E3BC0BE
:10008800DFFF374A382AA49A11C0F5FF10C0F8FFDD
:100098000FC0F7FF0EC0F6FF0DC0F4FF0CC0F3FF52
:1000A8000BC0DAFF0AC0D9FF09C0E2FF08C0E1FFB0
:1000B80007C0EAFF06C0E9FF05C0FBFF04C0FAFF5E
:1000C80003C0E0FF02C0E8FF01C0D8FF1000D8CF8E
:1000D80012F0E8CF13F0E0CF14F0FACF15F0FBCF11
:1000E80016F0E9CF17F0EACF18F0E1CF19F0E2CF18
:1000F8001AF0D9CF1BF0DACF1CF0F3CF1DF0F4CFF4
:100108001EF0F6CF1FF0F7CF20F0F8CF21F0F5CF93
:1001180022F0F2BA00D0F29422C0F5FF21C0F8FF15
:1001280020C0F7FF1FC0F6FF1EC0F4FF1DC0F3FF7D
:100138001CC0DAFF1BC0D9FF1AC0E2FF19C0E1FFDB
:1001480018C0EAFF17C0E9FF16C0FBFF15C0FAFF89
:1001580014C0E0FF13C0E8FF12C0D8FF100077EF0B
:1001680001F0000E236E000E236E070E236401D0EB
:1001780012002350010D3C0EF324D96E000EF4201A
:10018800DA6EDF50000160150009D8B40AD0235098
:10019800010D270EF324D96E000EF420DA6E010E3D
:1001A80009D02350010D270EF324D96E000EF42038
:1001B800DA6E000EDF6E2350010D3C0EF324D96E6B
:1001C800000EF420DA6EDF50000161150009D8B482
:1001D8000AD02350010D2F0EF324D96E000EF420FF
:1001E800DA6E010E09D02350010D2F0EF324D96EBB
:1001F800000EF420DA6E000EDF6E232A070E236449
:10020800B8D7120027B002D0809001D0808028B0E3
:1002180002D0809601D0808629B002D0809C01D07F
:10022800808C2AB002D0829601D082862BB002D070
:10023800829E01D0828E2CB002D0819601D0818618
:100248002DB002D0809E01D0808E2EB002D0829A2E
:1002580001D0828A2FB002D0809201D0808230B043
:1002680002D0809401D0808431B002D0829001D035
:10027800828032B002D0829401D0828433B002D01E
:10028800829201D0828234B002D0819401D08184DC
:1002980035B002D0829C01D0828C36B002D08298D0
:1002A80001D082881200BA9EBA9CBA8ABA98BA96C5
:1002B800BA84BA82BA90A68EA69CA69AA688A69652
:1002C800A694A692A690B99EB98CB99AB998B986FF
:1002D800B992B990A38AD08E730EAF6E000E7C6E61
:1002E800890E7B6E120000EE60F08C0EEE6AE80656
:1002F800FDE100EE27F0150EEE6AE806FDE17C0E42
:10030800F66E030EF76E000EF86E00EE3CF010EE7F
:1003180008F00900F5CFEEFFE550E150FAE10001E1
:10032800AFEF01F0700ED36E000E0F015D6F000E7F
:10033800C16E000E806E000E926E400E816E800EB1
:10034800936E000E826E000E946EF28EF28CE00EAA
:10035800F26E9B8C120096EC01F057EC01F0000E47
:10036800256E000E246E000E266EB5EC00F006EC2D
:0C03780001F0FBD78040201008040201B7
:020000040020DA
:08000000FFFFFFFFFFFFFFFF00
:020000040030CA
:0E00000014987E7CFF0991FF000000000000B4
:00000001FF
