:0400000069EF00F0B4
:10001800D8CF2AF0E8CF2BF0E0CF2CF0FACF2DF094
:10002800FBCF2EF0E9CF2FF0EACF30F0E1CF31F05F
:10003800E2CF32F0D9CF33F0DACF34F0F3CF35F066
:10004800F4CF36F0F6CF37F0F7CF38F0F8CF39F0F5
:10005800F5CF3AF0A4AA15D07ACF29F02550100A86
:100068002610D8A404D0000E266E000E256E010EB0
:100078002524D96E000E2620DA6E29C0DFFF254A16
:10008800262AA49A3AC0F5FF39C0F8FF38C0F7FF0E
:1000980037C0F6FF36C0F4FF35C0F3FF34C0DAFFCF
:1000A80033C0D9FF32C0E2FF31C0E1FF30C0EAFF00
:1000B8002FC0E9FF2EC0FBFF2DC0FAFF2CC0E0FFC8
:1000C8002BC0E8FF2AC0D8FF10002BEF01F015B0B5
:1000D80002D0809001D0808016B002D0809601D0E6
:1000E800808617B002D0809C01D0808C18B002D0D6
:1000F800829601D0828619B002D0829E01D0828E6B
:100108001AB002D0819601D081861BB002D0809EA1
:1001180001D0808E1CB002D0829A01D0828A1DB094
:1001280002D0809201D080821EB002D0809401D08B
:1001380080841FB002D0829001D0828020B002D08B
:10014800829401D0828421B002D0829201D082822E
:1001580022B002D0819401D0818423B002D0829C45
:1001680001D0828C24B002D0829801D082881200FB
:10017800000E3B6E000E3B6E070E3B6401D0120072
:100188003B50010D3C0EF324D96E000EF420DA6EBC
:10019800DF500F140009D8B40AD03B50010D150EDA
:1001A800F324D96E000EF420DA6E010E09D03B500C
:1001B800010D150EF324D96E000EF420DA6E000E30
:1001C800DF6E3B50010D3C0EF324D96E000EF42077
:1001D800DA6EDF5010140009D8B40AD03B50010D74
:1001E8001D0EF324D96E000EF420DA6E010E09D02C
:1001F8003B50010D1D0EF324D96E000EF420DA6E6B
:10020800000EDF6E3B2A070E3B64BAD71200BA9E77
:10021800BA9CBA8ABA98BA96BA84BA82BA90A68EA2
:10022800A69CA69AA688A696A694A692A690B99EDB
:10023800B98CB99AB998B986B992B990A38AD08E6F
:10024800730EAF6E000E7C6E890E7B6E120000EE90
:1002580001F0290EEE6AE806FDE1CC0EF66E020EFC
:10026800F76E000EF86E00EE3CF010EE08F0090094
:10027800F5CFEEFFE550E150FAE100015DEF01F046
:10028800700ED36E000E0F015D6F000EC16E000E72
:10029800806E000E926E400E816E800E936E000E80
:1002A800826E000E946EF28EF28CE00EF26E9B8CD3
:1002B800120044EC01F00BEC01F0BCEC00F06BEC2C
:0C02C80000F0FBD7804020100804020169
:020000040020DA
:08000000FFFFFFFFFFFFFFFF00
:020000040030CA
:0E00000014987E7CFF0991FF000000000000B4
:00000001FF
