:04000000B3EF00F06A
:10001800D8CF01F0E8CF02F0E0CF03F0FACF04F038
:10002800FBCF05F0E9CF06F0EACF07F0E1CF08F003
:10003800E2CF09F0D9CF0AF0DACF0BF0F3CF0CF00A
:10004800F4CF0DF0F6CF0EF0F7CF0FF0F8CF10F099
:10005800F5CF11F0A4AA17D07ACF40F03C50800A0F
:100068003D10D8A404D0000E3D6E000E3C6E000179
:10007800600E3C24D96E0001000E3D20DA6E40C0AF
:10008800DFFF3C4A3D2AA49A11C0F5FF10C0F8FFD3
:100098000FC0F7FF0EC0F6FF0DC0F4FF0CC0F3FF52
:1000A8000BC0DAFF0AC0D9FF09C0E2FF08C0E1FFB0
:1000B80007C0EAFF06C0E9FF05C0FBFF04C0FAFF5E
:1000C80003C0E0FF02C0E8FF01C0D8FF1000D8CF8E
:1000D80012F0E8CF13F0E0CF14F0FACF15F0FBCF11
:1000E80016F0E9CF17F0EACF18F0E1CF19F0E2CF18
:1000F8001AF0D9CF1BF0DACF1CF0F3CF1DF0F4CFF4
:100108001EF0F6CF1FF0F7CF20F0F8CF21F0F5CF93
:1001180022F0F2BA00D0F29422C0F5FF21C0F8FF15
:1001280020C0F7FF1FC0F6FF1EC0F4FF1DC0F3FF7D
:100138001CC0DAFF1BC0D9FF1AC0E2FF19C0E1FFDB
:1001480018C0EAFF17C0E9FF16C0FBFF15C0FAFF89
:1001580014C0E0FF13C0E8FF12C0D8FF1000D2EFB0
:1001680002F0236E2366A9D0829E000E256E000E33
:10017800246E2550800A800F020ED8B4245CD8B0B3
:1001880003D0244A252AF5D78196000E256E000E45
:10019800246E2550800A800F020ED8B4245CD8B093
:1001A80003D0244A252AF5D7809E000E256E000E1E
:1001B800246E2550800A800F020ED8B4245CD8B073
:1001C80003D0244A252AF5D7829A000E256E000E00
:1001D800246E2550800A800F020ED8B4245CD8B053
:1001E80003D0244A252AF5D78292000E256E000EE8
:1001F800246E2550800A800F020ED8B4245CD8B033
:1002080003D0244A252AF5D78194000E256E000EC6
:10021800246E2550800A800F020ED8B4245CD8B012
:1002280003D0244A252AF5D7829C000E256E000E9D
:10023800246E2550800A800F020ED8B4245CD8B0F2
:1002480003D0244A252AF5D78298000E256E000E81
:10025800246E2550800A800F020ED8B4245CD8B0D2
:1002680003D0244A252AF5D72CB002D0809001D09B
:1002780080802DB002D0809601D080862EB002D02A
:10028800809C01D0808C2FB002D0829601D08286CB
:1002980034B002D0809201D0808235B002D08094F0
:1002A80001D0808436B002D0829001D0828037B0ED
:1002B80002D0829401D0828412008090000E256EB4
:1002C800000E246E2550800A800F020ED8B4245CDC
:1002D800D8B003D0244A252AF5D78096000E256E7B
:1002E800000E246E2550800A800F020ED8B4245CBC
:1002F800D8B003D0244A252AF5D7809C000E256E55
:10030800000E246E2550800A800F020ED8B4245C9B
:10031800D8B003D0244A252AF5D78296000E256E38
:10032800000E246E2550800A800F020ED8B4245C7B
:10033800D8B003D0244A252AF5D78092000E256E1E
:10034800000E246E2550800A800F020ED8B4245C5B
:10035800D8B003D0244A252AF5D78094000E256EFC
:10036800000E246E2550800A800F020ED8B4245C3B
:10037800D8B003D0244A252AF5D78290000E256EDE
:10038800000E246E2550800A800F020ED8B4245C1B
:10039800D8B003D0244A252AF5D78294000E256EBA
:1003A800000E246E2550800A800F020ED8B4245CFB
:1003B800D8B003D0244A252AF5D730B002D0829E7F
:1003C80001D0828E31B002D0819601D0818632B0C0
:1003D80002D0809E01D0808E33B002D0829A01D0A4
:1003E800828A38B002D0829201D0828239B002D09B
:1003F800819401D081843AB002D0829C01D0828C51
:100408003BB002D0829801D082881200000E286E7C
:10041800000E286E070E286401D0120023C025F0B4
:1004280024C026F0253A263AF00E261625500F0B42
:100438002612F00E25160001600E2524D96E000143
:10044800000E2620DA6EDF50276E2850010D410E6F
:10045800F324D96E000EF420DA6EDF502714000959
:10046800D8B40AD02850010D2C0EF324D96E000EF2
:10047800F420DA6E010E09D02850010D2C0EF32459
:10048800D96E000EF420DA6E000EDF6E23C025F060
:1004980024C026F0253A263AF00E261625500F0BD2
:1004A8002612F00E2516010E2526000E2622000122
:1004B800600E2524D96E0001000E2620DA6EDF506A
:1004C800276E2850010D410EF324D96E000EF4203A
:1004D800DA6EDF5027140009D8B40AD02850010D6D
:1004E800340EF324D96E000EF420DA6E010E09D012
:1004F8002850010D340EF324D96E000EF420DA6E64
:10050800000EDF6E282A070E286488D71200F1EC47
:1005180002F0B2EC02F0000E2A6E000E296E000EF8
:100528002B6E000E246E000E236E0AEC02F02B5088
:10053800B5EC00F0000E2A6E000E296E2A50800AD3
:10054800800F640ED8B4295CD8B003D0294A2A2A6F
:10055800F5D72B50D8A4E3D7010EE2D7BA9EBA9CA0
:10056800BA8ABA98BA96BA84BA82BA90A68EA69C63
:10057800A69AA688A696A694A692A690B99EB98C85
:10058800B99AB998B986B992B990A38AD08E730EE0
:10059800AF6E000E7C6E890E7B6E120000EE60F06E
:1005A8008C0EEE6AE806FDE100EE2CF0150EEE6A00
:1005B800E806FDE1140EF66E060EF76E000EF86EF4
:1005C80000EE41F010EE08F00900F5CFEEFFE5501F
:1005D800E150FAE100018BEF02F0700ED36E000ECD
:1005E8000F015D6F000EC16E000E806E000E926EE0
:1005F800400E816E800E936E000E826E000E946E19
:10060800F28EF28CE00EF26E9B8C1200804020106D
:0406180008040201CF
:020000040020DA
:08000000FFFFFFFFFFFFFFFF00
:020000040030CA
:0E00000014987E7CFF0991FF000000000000B4
:00000001FF
