:04000000B3EF00F06A
:10001800D8CF01F0E8CF02F0E0CF03F0FACF04F038
:10002800FBCF05F0E9CF06F0EACF07F0E1CF08F003
:10003800E2CF09F0D9CF0AF0DACF0BF0F3CF0CF00A
:10004800F4CF0DF0F6CF0EF0F7CF0FF0F8CF10F099
:10005800F5CF11F0A4AA17D07ACF42F03D50800A0C
:100068003E10D8A404D0000E3E6E000E3D6E000176
:10007800600E3D24D96E0001000E3E20DA6E42C0AB
:10008800DFFF3D4A3E2AA49A11C0F5FF10C0F8FFD1
:100098000FC0F7FF0EC0F6FF0DC0F4FF0CC0F3FF52
:1000A8000BC0DAFF0AC0D9FF09C0E2FF08C0E1FFB0
:1000B80007C0EAFF06C0E9FF05C0FBFF04C0FAFF5E
:1000C80003C0E0FF02C0E8FF01C0D8FF1000D8CF8E
:1000D80012F0E8CF13F0E0CF14F0FACF15F0FBCF11
:1000E80016F0E9CF17F0EACF18F0E1CF19F0E2CF18
:1000F8001AF0D9CF1BF0DACF1CF0F3CF1DF0F4CFF4
:100108001EF0F6CF1FF0F7CF20F0F8CF21F0F5CF93
:1001180022F0F2BA00D0F29422C0F5FF21C0F8FF15
:1001280020C0F7FF1FC0F6FF1EC0F4FF1DC0F3FF7D
:100138001CC0DAFF1BC0D9FF1AC0E2FF19C0E1FFDB
:1001480018C0EAFF17C0E9FF16C0FBFF15C0FAFF89
:1001580014C0E0FF13C0E8FF12C0D8FF1000F1EF91
:1001680001F0000E286E000E286E070E286401D0DC
:10017800120023C025F024C026F0253A263AF00EB6
:10018800261625500F0B2612F00E25160001600EBC
:100198002524D96E0001000E2620DA6EDF50276E66
:1001A8002850010D430EF324D96E000EF420DA6EA8
:1001B800DF5027140009D8B40AD02850010D2D0E9D
:1001C800F324D96E000EF420DA6E010E09D02850FF
:1001D800010D2D0EF324D96E000EF420DA6E000EF8
:1001E800DF6E23C025F024C026F0253A263AF00E0B
:1001F800261625500F0B2612F00E2516010E252661
:10020800000E26220001600E2524D96E0001000E82
:100218002620DA6EDF50276E2850010D430EF32496
:10022800D96E000EF420DA6EDF5027140009D8B416
:100238000AD02850010D350EF324D96E000EF42093
:10024800DA6E010E09D02850010D350EF324D96E4F
:10025800000EF420DA6E000EDF6E282A070E2864DE
:1002680088D7120080908096809C8296819A819689
:100278008190829A809280948290829481988194CD
:10028800829C829854D02DB002D0809001D080807A
:100298002EB002D0809601D080862FB002D0809CEC
:1002A80001D0808C30B002D0829601D082861200B4
:1002B80031B002D0819A01D0818A32B002D08196C1
:1002C80001D0818633B002D0819001D0818034B0D2
:1002D80002D0829A01D0828A120035B002D0809270
:1002E80001D0808236B002D0809401D0808437B0AB
:1002F80002D0829001D0828038B002D0829401D09E
:100308008284120039B002D0819801D081883AB035
:1003180002D0819401D081843BB002D0829C01D06C
:10032800828C3CB002D0829801D082881200405062
:10033800000AD8B4A8D7010AD8B4BAD7030AD8B4DF
:10034800CCD7010AD8A41200DDD7000E296E000E02
:100358002A6E000E2B6E000E2C6E32EC02F012ECA0
:1003680002F0000E246E000E236EB5EC00F0000EB5
:10037800406E030E406401D0F4D736EC01F0000E55
:10038800296E000E2A6E000E2B6E000E2C6E2C505D
:10039800800A800F08E10F0E2B5C05E1420E2A5CF3
:1003A80002E1400E295CD8B013D0010E2926000EB8
:1003B8002A222B222C222C50800A800F08E10F0EB3
:1003C8002B5C05E1420E2A5C02E1400E295CEBD76A
:1003D800402A030E4064D1D7C4D700EE60F08C0EDB
:1003E800EE6AE806FDE100EE2DF0160EEE6AE8066C
:1003F800FDE1960EF66E040EF76E000EF86E00EE36
:1004080043F010EE08F00900F5CFEEFFE550E1509B
:10041800FAE1000EF86E0001A9EF01F0BA9EBA9C4D
:10042800BA8ABA98BA96BA84BA82BA90A68EA69CA4
:10043800A69AA688A696A694A692A690B99EB98CC6
:10044800B99AB998B986B992B990A38AD08E730E21
:10045800AF6E000E7C6E890E7B6E1200700ED36E2E
:10046800000E0F015D6F000EC16E000E806E000E53
:10047800926E400E816E800E936E000E826E000E9C
:10048800946EF28EF28CF80EF26E9B8C1200804005
:060498002010080402011F
:020000040020DA
:08000000FFFFFFFFFFFFFFFF00
:020000040030CA
:0E00000014987E7CFF0991FF000000000000B4
:00000001FF
