:04000000B3EF00F06A
:10001800D8CF01F0E8CF02F0E0CF03F0FACF04F038
:10002800FBCF05F0E9CF06F0EACF07F0E1CF08F003
:10003800E2CF09F0D9CF0AF0DACF0BF0F3CF0CF00A
:10004800F4CF0DF0F6CF0EF0F7CF0FF0F8CF10F099
:10005800F5CF11F0A4AA17D07ACF38F03450800A1F
:100068003510D8A404D0000E356E000E346E000191
:10007800600E3424D96E0001000E3520DA6E38C0C7
:10008800DFFF344A352AA49A11C0F5FF10C0F8FFE3
:100098000FC0F7FF0EC0F6FF0DC0F4FF0CC0F3FF52
:1000A8000BC0DAFF0AC0D9FF09C0E2FF08C0E1FFB0
:1000B80007C0EAFF06C0E9FF05C0FBFF04C0FAFF5E
:1000C80003C0E0FF02C0E8FF01C0D8FF1000D8CF8E
:1000D80012F0E8CF13F0E0CF14F0FACF15F0FBCF11
:1000E80016F0E9CF17F0EACF18F0E1CF19F0E2CF18
:1000F8001AF0D9CF1BF0DACF1CF0F3CF1DF0F4CFF4
:100108001EF0F6CF1FF0F7CF20F0F8CF21F0F5CF93
:1001180022F0F2BA00D0F29422C0F5FF21C0F8FF15
:1001280020C0F7FF1FC0F6FF1EC0F4FF1DC0F3FF7D
:100138001CC0DAFF1BC0D9FF1AC0E2FF19C0E1FFDB
:1001480018C0EAFF17C0E9FF16C0FBFF15C0FAFF89
:1001580014C0E0FF13C0E8FF12C0D8FF100077EF0B
:1001680001F0000E236E000E236E070E236401D0EB
:1001780012002350010D390EF324D96E000EF4201D
:10018800DA6EDF5000016E150009D8B40AD023508A
:10019800010D240EF324D96E000EF420DA6E010E40
:1001A80009D02350010D240EF324D96E000EF4203B
:1001B800DA6E000EDF6E2350010D390EF324D96E6E
:1001C800000EF420DA6EDF5000016F150009D8B474
:1001D8000AD02350010D2C0EF324D96E000EF42002
:1001E800DA6E010E09D02350010D2C0EF324D96EBE
:1001F800000EF420DA6E000EDF6E232A070E236449
:10020800B8D7120024B002D0809001D0808025B0E9
:1002180002D0809601D0808626B002D0809C01D082
:10022800808C27B002D0829601D0828628B002D076
:10023800829E01D0828E29B002D0819601D081861B
:100248002AB002D0809E01D0808E2BB002D0829A34
:1002580001D0828A2CB002D0809201D080822DB049
:1002680002D0809401D080842EB002D0829001D038
:1002780082802FB002D0829401D0828430B002D024
:10028800829201D0828231B002D0819401D08184DF
:1002980032B002D0829C01D0828C33B002D08298D6
:1002A80001D082881200BA9EBA9CBA8ABA98BA96C5
:1002B800BA84BA82BA90A68EA69CA69AA688A69652
:1002C800A694A692A690B99EB98CB99AB998B986FF
:1002D800B992B990A38AD08E730EAF6E000E7C6E61
:1002E800890E7B6E120000EE60F08C0EEE6AE80656
:1002F800FDE100EE24F0150EEE6AE806FDE1700E51
:10030800F66E030EF76E000EF86E00EE39F010EE82
:1003180008F00900F5CFEEFFE550E150FAE10001E1
:10032800AFEF01F0700ED36E000E0F015D6F000E7F
:10033800C16E000E806E000E926E400E816E800EB1
:10034800936E000E826E000E946EF28EF28CE00EAA
:10035800F26E9B8C120096EC01F057EC01F0B5ECB4
:1003680000F006EC01F0FBD78040201008040201E1
:020000040020DA
:08000000FFFFFFFFFFFFFFFF00
:020000040030CA
:0E00000014987E7CFF0991FF000000000000B4
:00000001FF
