:04000000B3EF00F06A
:10001800D8CF01F0E8CF02F0E0CF03F0FACF04F038
:10002800FBCF05F0E9CF06F0EACF07F0E1CF08F003
:10003800E2CF09F0D9CF0AF0DACF0BF0F3CF0CF00A
:10004800F4CF0DF0F6CF0EF0F7CF0FF0F8CF10F099
:10005800F5CF11F0A4AA17D07ACF3DF03950800A15
:100068003A10D8A404D0000E3A6E000E396E000182
:10007800600E3924D96E0001000E3A20DA6E3DC0B8
:10008800DFFF394A3A2AA49A11C0F5FF10C0F8FFD9
:100098000FC0F7FF0EC0F6FF0DC0F4FF0CC0F3FF52
:1000A8000BC0DAFF0AC0D9FF09C0E2FF08C0E1FFB0
:1000B80007C0EAFF06C0E9FF05C0FBFF04C0FAFF5E
:1000C80003C0E0FF02C0E8FF01C0D8FF1000D8CF8E
:1000D80012F0E8CF13F0E0CF14F0FACF15F0FBCF11
:1000E80016F0E9CF17F0EACF18F0E1CF19F0E2CF18
:1000F8001AF0D9CF1BF0DACF1CF0F3CF1DF0F4CFF4
:100108001EF0F6CF1FF0F7CF20F0F8CF21F0F5CF93
:1001180022F0F2BA00D0F29422C0F5FF21C0F8FF15
:1001280020C0F7FF1FC0F6FF1EC0F4FF1DC0F3FF7D
:100138001CC0DAFF1BC0D9FF1AC0E2FF19C0E1FFDB
:1001480018C0EAFF17C0E9FF16C0FBFF15C0FAFF89
:1001580014C0E0FF13C0E8FF12C0D8FF1000ABEFD7
:1001680001F0000E286E000E286E070E286401D0DC
:10017800120023C025F024C026F0253A263AF00EB6
:10018800261625500F0B2612F00E2516020E2526D0
:10019800000E26220001600E2524D96E0001000EF3
:1001A8002620DA6EDF50276E2850010D3E0EF3240C
:1001B800D96E000EF420DA6EDF5027140009D8B487
:1001C8000AD02850010D290EF324D96E000EF42010
:1001D800DA6E010E09D02850010D290EF324D96ECC
:1001E800000EF420DA6E000EDF6E23C025F024C066
:1001F80026F0253A263AF00E261625500F0B261221
:10020800F00E2516030E2526000E26220001600E8C
:100218002524D96E0001000E2620DA6EDF50276EE5
:100228002850010D3E0EF324D96E000EF420DA6E2C
:10023800DF5027140009D8B40AD02850010D310E18
:10024800F324D96E000EF420DA6E010E09D028507E
:10025800010D310EF324D96E000EF420DA6E000E73
:10026800DF6E282A070E286484D7120029B002D02E
:10027800809001D080802AB002D0809601D08086FC
:100288002BB002D0809C01D0808C2CB002D08296FA
:1002980001D082862DB002D0819A01D0818A2EB0F9
:1002A80002D0819601D081862FB002D0819001D0F2
:1002B800818030B002D0829A01D0828A31B002D0D7
:1002C800809201D0808232B002D0809401D08084A4
:1002D80033B002D0829001D0828034B002D08294B0
:1002E80001D0828435B002D0819801D0818836B09F
:1002F80002D0819401D0818437B002D0829C01D091
:10030800828C38B002D0829801D082881200BA9EBE
:10031800BA9CBA8ABA98BA96BA84BA82BA90A68EA1
:10032800A69CA69AA688A696A694A692A690B99EDA
:10033800B98CB99AB998B986B992B990A38AD08E6E
:10034800730EAF6E000E7C6E890E7B6E120000EE8F
:1003580060F08C0EEE6AE806FDE100EE29F0150E5D
:10036800EE6AE806FDE1E00EF66E030EF76E000E8B
:10037800F86E00EE3EF010EE08F00900F5CFEEFF43
:10038800E550E150FAE10001E3EF01F0700ED36EA1
:10039800000E0F015D6F000EC16E000E806E000E24
:1003A800926E400E816E800E936E000E826E000E6D
:1003B800946EF28EF28CF80EF26E9B8C1200CAECE0
:1003C80001F08BEC01F0000E246E000E236EB5ECEC
:1003D80000F03AEC01F0F7D7804020100804020141
:020000040020DA
:08000000FFFFFFFFFFFFFFFF00
:020000040030CA
:0E00000014987E7CFF0991FF000000000000B4
:00000001FF
